:020000040800F2
:100000005808002089010008E5010008E501000802
:10001000E5010008E5010008E50100080000000016
:10002000000000000000000000000000E5010008E2
:10003000E501000800000000E5010008AD0500082A
:10004000E5010008E5010008E5010008E5010008F8
:10005000E5010008E5010008E5010008E5010008E8
:10006000E5010008E5010008E5010008E5010008D8
:10007000E5010008E5010008E5010008E5010008C8
:10008000E5010008E5010008E5010008E5010008B8
:10009000E5010008E5010008E5010008E5010008A8
:1000A000E5010008E5010008E5010008E501000898
:1000B000E501000845020008E5010008E501000827
:1000C000E5010008E5010008E5010008E501000878
:1000D000E5010008E5010008E5010008E501000868
:1000E000E5010008E5010008E5010008E501000858
:1000F000E5010008E5010008E5010008E501000848
:10010000E5010008E5010008E5010008E501000837
:10011000E5010008E5010008E5010008E501000827
:10012000E5010008E5010008E5010008E501000817
:10013000E5010008E5010008E5010008E501000807
:10014000E5010008E5010008E5010008E5010008F7
:10015000E5010008E5010008E5010008E5010008E7
:10016000E5010008E5010008E5010008E5010008D7
:10017000E5010008E5010008E5010008E5010008C7
:10018000E5010008E501000880B582B000AF104B22
:100190007B60104B3B6007E03B681A1D3A607A6851
:1001A000111D796012681A603B680B4A9342F3D3C1
:1001B0000A480B494FF000028842B8BF40F8042BB0
:1001C000FADB00F071F800BF0837BD4680BD00BF04
:1001D000541100080000002014000020140000202A
:1001E0005800002080B400AFFEE700BF80B485B0A7
:1001F00000AF7860114B1B68BB60EFF30583FB60B9
:10020000FB68002B11D100BF0C4B1A68BB68D21AD7
:100210007B689A42F8D30BE0094B1B6803F48033E8
:10022000002B02D07B68013B7B607B68002BF3D105
:1002300000BF1437BD4680BC704700BF18000020C7
:1002400010E000E080B500AF0121084800F074FC28
:100250000346002B08D04FF47041054800F0E2FA45
:100260000121024800F092FC00BF80BD0004004064
:10027000000C024080B582B000AF4FF470433B6089
:1002800001233B710023BB7103237B710023FB71AE
:100290003B461946034800F029FA00BF0837BD461F
:1002A00080BD00BF000C024080B588B002AF00F0F6
:1002B000C7FA0121082000F049F8FFF7DBFF00F042
:1002C000EDF9381D402300931C4B4FF400521C499C
:1002D00000F086F80346002B08D14FF480411948FE
:1002E00000F092FA6420FFF781FFF6E73B1D184605
:1002F00000F0BCF87B684FF00001184600F002FFE8
:100300000346002B05D04FF480410E4800F07CFAE4
:10031000ECE77B680C49184600F012FF0346002BFF
:1003200005D04FF40051074800F06EFADEE74FF4B5
:100330000041044800F068FAD8E700BF001002400E
:1003400000080240000C02400000484280B483B024
:1003500000AF78600B46FB70FB78002B06D0094994
:10036000084B1A6B7B6813430B6306E00549054B8A
:100370001A6B7B68DB4313400B6300BF0C37BD4631
:1003800080BC70470038024080B485B000AF786010
:100390000F4B1A687B6802FB03F3FB600D4B1B6875
:1003A0000D4A934204D00B4B1B680C4A934204D174
:1003B000074B1B68FA68D31AFB6000BFFB685A1E24
:1003C000FA60002BFAD100BF1437BD4680BC7047DD
:1003D00054000020000000200095BA0A00E1F50555
:1003E00080B586B002AFF860B9603B601346FB8011
:1003F00000F054F9FB68BA685A60FB68FA881A8101
:10040000FB683A68DA60FB683A8B1A82FB68D86846
:10041000FB68198A01230193022300930023012220
:1004200000F0B6FAFB685868FB681989012301934C
:10043000022300930023002200F0AAFAFB68DB6885
:10044000FA68128A5A83F86800F010F803464FF0F1
:100450000001184600F06AFE0346002B01D001237C
:1004600000E0002318461037BD4680BD80B584B03B
:1004700000AF78607B68DB687A68128A5A83022052
:10048000FFF782FF7B68DB687A68128A1A830A208A
:10049000FFF77AFF7B68DB687A68128A5A831A4B07
:1004A000BB6006E0BB685A1EBA60002B01D1174B37
:1004B00026E07B685B681B697A6812891340002B11
:1004C000F0D00023FB6005E0FB680133FB600120F6
:1004D000FFF75AFF7B685B681B697A6812891340D3
:1004E000002BF1D1F86800F017FC034608491846C4
:1004F00000F06AFC03461A467B681A607B681B683A
:1005000018461037BD4680BD40420F00000080BF36
:100510007AC18C3C80B483B000AF03463960FB7174
:1005200097F90730002B0BDA0D49FB7903F00F0325
:10053000043B3A68D2B21201D2B20B441A7609E0F7
:10054000084997F907303A68D2B21201D2B20B4487
:1005500083F8002300BF0C37BD4680BC704700BF46
:1005600000ED00E000E100E080B582B000AF78600F
:100570007B68B3F1807F01D3012311E00A4A7B68D5
:1005800023F07F43013B53600F214FF0FF30FFF713
:10059000C1FF054B00229A60034B07221A6000231B
:1005A00018460837BD4680BD10E000E080B582B037
:1005B00000AF374B1B680133354A1360354B1B685E
:1005C000002B04D0334B1B68013B324A1360AFF35E
:1005D00000800023FB7152E0FB792F4A9B001344FB
:1005E0005B68002B48D0FB792B4A9B0013445B6867
:1005F0001B7B002B40D0FB79274A9B0013445B6890
:100600009B68002B38D0FB79234A9B0013445B681E
:100610009A68013A9A60FB791F4A9B0013445B6811
:100620009B68002B28D1FB791B4A9B0013445B6815
:100630001A69FB7918499B000B445B685B69184693
:100640009047FB79144A9B0013445A68FB7912497E
:100650009B000B445B681B689360FB790E4A9B0010
:1006600013445B685B68002B06D1FB790A4A9B0048
:1006700013445B6800221A73FB790133FB71064B4C
:100680001B78FA799A42A7D300BF0837BD4680BDD0
:10069000180000201C0000202400002080B500AFBE
:1006A0000D4B1B680D4AA2FB03239B091846FFF75D
:1006B0005BFF0346002B00D0FEE7074B1B689B093E
:1006C000074AA2FB03239B0A064A1360064B01223A
:1006D0001A7000BF80BD00BF00000020D34D621023
:1006E00017916502540000202000002080B487B0DC
:1006F00000AF7860396000237B6100233B610023F9
:10070000FB6000237B6176E001227B6902FA03F340
:100710003B613B681A683B691340FB60FA683B69C0
:100720009A4265D17B681A687B695B00032101FAF4
:1007300003F3DB431A407B681A607B681A683B68E6
:100740001B7919467B695B0001FA03F31A437B6846
:100750001A603B681B79012B03D03B681B79022B85
:100760002ED17B689A687B695B00032101FA03F351
:10077000DB431A407B689A607B689A683B685B79C8
:1007800019467B695B0001FA03F31A437B689A60A0
:100790007B685A687B699BB2012101FA03F3DB4352
:1007A0001A407B685A607B685A683B689B79194697
:1007B0007B699BB201FA03F39BB21A437B685A60D0
:1007C0007B68DA687B699BB25B00032101FA03F363
:1007D000DB431A407B68DA607B68DA683B68DB7968
:1007E00019467B695B0001FA03F31A437B68DA6000
:1007F0007B6901337B617B690F2B85D900BF1C3777
:10080000BD4680BC704700BF80B483B000AF786045
:100810000B467B807B687A881A8300BF0C37BD4605
:1008200080BC704780B483B000AF78600B467B809B
:100830007B687A885A8300BF0C37BD4680BC7047FE
:1008400080B500AF124A124B1B6843F001031360DE
:100850000F4B00229A600E4A0D4B1B6823F08473E5
:1008600023F4803313600A4B0A4A5A60084A084B43
:100870001B6823F480231360054B0022DA6000F02C
:100880000DF8054B4FF000629A6000BF80BD00BFBD
:10089000003802401030002400ED00E080B483B046
:1008A00000AF00237B6000233B60354A344B1B685C
:1008B00043F480331360324B1B6803F400333B6016
:1008C0007B6801337B603B68002B03D17B68B3F509
:1008D000A06FF0D12A4B1B6803F40033002B02D029
:1008E00001233B6001E000233B603B68012B42D1C8
:1008F000234A234B1B6C43F080531364214A214B42
:100900001B6843F4804313601D4A1D4B9B68936032
:100910001B4A1B4B9B6843F400439360184A184BD7
:100920009B6843F4A0539360154B174A5A60144ACE
:10093000134B1B6843F08073136000BF104B1B68A0
:1009400003F00073002BF9D0104B40F205621A60DF
:100950000B4A0B4B9B6823F003039360084A084B38
:100960009B6843F00203936000BF054B9B6803F054
:100970000C03082BF9D100BF0C37BD4680BC704773
:10098000003802400070004008544007003C02401C
:1009900080B584B002AF7860084611461A46034617
:1009A0007B800B467B7013463B707B88002B0ED000
:1009B000786800F021F838787A7879883B7D01935F
:1009C0003B7C00930346786800F02EF800E000BFFF
:1009D0000837BD4680BD00BF80B483B000AF7860EB
:1009E0007B6803F13F4303F57E039B0A9BB21846E5
:1009F0000C37BD4680BC704780B582B000AF7860D0
:100A00007868FFF7E9FF03461A46012303FA02F16B
:100A1000044A044B1B6B0B43136300BF0837BD46EE
:100A200080BD00BF0038024080B584B000AF786060
:100A3000084611461A4603467B800B467B701346D8
:100A40003B707868FFF7C8FF0346BB730023FB7356
:100A500068E07A88FB7B42FA03F303F00103002B82
:100A60005CD0BB7BBA7B334931F8122090B2FA7B61
:100A7000012101FA02F292B201460A4392B291B206
:100A80002C4A22F813107B68DB68FA7B52000321A2
:100A900001FA02F2D2431340397EFA7B520001FA86
:100AA00002F21A437B68DA607B681A68FB7B5B00A2
:100AB000032101FA03F3DB4313407978FA7B5200F8
:100AC00001FA02F21A437B681A607B78012B02D08C
:100AD0007B78022B23D17B685B68FA7B012101FACA
:100AE00002F292B2D2431A403978FB7B01FA03F347
:100AF0009BB21A437B685A607B689A68FB7B5B00F9
:100B0000032101FA03F3DB431340397FFA7B5200E0
:100B100001FA02F21A437B689A6000E000BFFB7B97
:100B20000133FB73FB7B0F2B93D900BF1037BD46FE
:100B300080BD00BF3C00002080B485B000AF78606D
:100B40000B467B800023FB730023BB8100237B814A
:100B50007B681B8A9AB27B881340BB817B689B8928
:100B60009AB27B8813407B81BB89002B05D07B899F
:100B7000002B02D00123FB7301E00023FB73FB7BFE
:100B800018461437BD4680BC704700BF80B483B0A0
:100B900000AF78600B467B807B88DB439AB27B6832
:100BA0001A8200BF0C37BD4680BC704780F0004001
:100BB00002E000BF81F0004142001FBF5FEA410335
:100BC00092EA030F7FEA226C7FEA236C6AD04FEA35
:100BD0001262D2EB1363C1BFD2184140484041407A
:100BE000B8BF5B42192B88BF704710F0004F40F42C
:100BF000000020F07F4018BF404211F0004F41F448
:100C0000000121F07F4118BF494292EA030F3FD013
:100C1000A2F1010241FA03FC10EB0C00C3F1200326
:100C200001FA03F100F0004302D5494260EB4000B5
:100C3000B0F5000F13D3B0F1807F06D340084FEA20
:100C4000310102F10102FE2A51D2B1F1004F40EB15
:100C5000C25008BF20F0010040EA0300704749007D
:100C600040EB000010F4000FA2F10102EDD1B0FA48
:100C700080FCACF1080CB2EB0C0200FA0CF0AABF3D
:100C800000EBC25052421843BCBFD04018437047DB
:100C900092F0000F81F4000106BF80F400000132E1
:100CA000013BB5E74FEA41037FEA226C18BF7FEAB8
:100CB000236C21D092EA030F04D092F0000F08BFFA
:100CC0000846704790EA010F1CBF0020704712F0E1
:100CD0007F4F04D1400028BF40F00040704712F120
:100CE00000723CBF00F50000704700F0004343F085
:100CF000FE4040F4000070477FEA226216BF0846BB
:100D00007FEA23630146420206BF5FEA412390EA7D
:100D1000010F40F4800070474FF0000304E000BF73
:100D200010F0004348BF40425FEA000C08BF704724
:100D300043F0964301464FF000001CE050EA0102E8
:100D400008BF70474FF000030AE000BF50EA0102FD
:100D500008BF704711F0004302D5404261EB4101EA
:100D60005FEA010C02BF84460146002043F0B6430F
:100D700008BFA3F18053A3F50003BCFA8CF2083A34
:100D8000A3EBC25310DB01FA02FC634400FA02FC3D
:100D9000C2F12002BCF1004F20FA02F243EB020044
:100DA00008BF20F00100704702F1200201FA02FCA6
:100DB000C2F1200250EA4C0021FA02F243EB020099
:100DC00008BF20EADC7070474FF0FF0C1CEAD052DD
:100DD0001EBF1CEAD15392EA0C0F93EA0C0F6FD09E
:100DE0001A4480EA010C400218BF5FEA41211ED07C
:100DF0004FF0006343EA501043EA5111A0FB013168
:100E00000CF00040B1F5000F3EBF490041EAD3713C
:100E10005B0040EA010062F17F02FD2A1DD8B3F1B8
:100E2000004F40EBC25008BF20F00100704790F027
:100E3000000F0CF0004C08BF49024CEA502040EA79
:100E400051207F3AC2BFD2F1FF0340EAC25070473F
:100E500040F400004FF00003013A5DDC12F1190F7D
:100E6000DCBF00F000407047C2F10002410021FAEF
:100E700002F1C2F1200200FA02FC5FEA310040F107
:100E8000000053EA4C0308BF20EADC70704792F080
:100E9000000F00F0004C02BF400010F4000F013AB8
:100EA000F9D040EA0C0093F0000F01F0004C02BFB3
:100EB000490011F4000F013BF9D041EA0C018FE722
:100EC0000CEAD15392EA0C0F18BF93EA0C0F0AD028
:100ED00030F0004C18BF31F0004CD8D180EA01004E
:100EE00000F00040704790F0000F17BF90F0004FE7
:100EF000084691F0000F91F0004F14D092EA0C0FC9
:100F000001D142020FD193EA0C0F03D14B0218BF5B
:100F1000084608D180EA010000F0004040F0FE40A1
:100F200040F40000704740F0FE4040F4400070473D
:100F30004FF0FF0C1CEAD0521EBF1CEAD15392EABC
:100F40000C0F93EA0C0F69D0A2EB030280EA010CAC
:100F500049024FEA402037D04FF0805343EA111145
:100F600043EA10130CF000408B4238BF5B0042F1A3
:100F70007D024FF4000C8B4224BF5B1A40EA0C0048
:100F8000B3EB510F24BFA3EB510340EA5C00B3EB7A
:100F9000910F24BFA3EB910340EA9C00B3EBD10F68
:100FA00024BFA3EBD10340EADC001B0118BF5FEABA
:100FB0001C1CE0D1FD2A3FF650AF8B4240EBC250E3
:100FC00008BF20F0010070470CF0004C4CEA5020A4
:100FD0007F32C2BFD2F1FF0340EAC250704740F4F3
:100FE00000004FF00003013A37E792F0000F00F0E5
:100FF000004C02BF400010F4000F013AF9D040EA63
:101000000C0093F0000F01F0004C02BF490011F4F6
:10101000000F013BF9D041EA0C0195E70CEAD153EE
:1010200092EA0C0F08D142027FF47DAF93EA0C0FD5
:101030007FF470AF084676E793EA0C0F04D14B02B9
:101040003FF44CAF08466EE730F0004C18BF31F06B
:10105000004CCAD130F000427FF45CAF31F0004365
:101060007FF43CAF5FE700BF4FF0FF3C06E000BFFE
:101070004FF0010C02E000BF4FF0010C4DF804CD21
:101080004FEA40024FEA41037FEA226C18BF7FEA31
:10109000236C11D001B052EA530C18BF90EA010F33
:1010A00058BFB2EB030088BFC81738BF6FEAE170C2
:1010B00018BF40F0010070477FEA226C02D15FEA5E
:1010C000402C05D17FEA236CE4D15FEA412CE1D0CA
:1010D0005DF8040B704700BF844608466146FFE791
:1010E0000FB5FFF7C9FF002848BF10F1000F0FBD73
:1010F0004DF808EDFFF7F4FF0CBF012000205DF86C
:1011000008FB00BF4DF808EDFFF7EAFF34BF0120F0
:1011100000205DF808FB00BF4DF808EDFFF7E0FF89
:1011200094BF012000205DF808FB00BF4DF808EDDA
:10113000FFF7D2FF94BF012000205DF808FB00BF3D
:101140004DF808EDFFF7C8FF34BF012000205DF81F
:0411500008FB00BFD9
:10115400007A030A000000000000000001020304FA
:041164000607080969
:0400000508000000EF
:00000001FF
